:020000040000fa
:020000040800f2
:10000000f8ff0320cd00000c0305000c4305000c95
:100010009703000c9703000c9703000c9703000c48
:100020000000000000000000000000009703000c2a
:100030009703000c000000009703000c9703000cce
:100040009703000c9703000c9703000c9703000c18
:100050009703000c9703000c9703000c9703000c08
:100060009703000c9703000c9703000c9703000cf8
:100070009703000c9703000c9703000c9703000ce8
:100080009703000c9703000c9703000c9703000cd8
:100090009703000c8104000ca504000c9703000cce
:1000a0009703000c9703000c9703000c9703000cb8
:1000b0009703000c9703000c9703000c9703000ca8
:1000c0009703000c9703000c9703000c9703000c98
:1000d0009703000c9703000c9703000c9703000c88
:020000040000fa
:020000040a00f0
:040000000100fefffe
:020000040000fa
:020000040a00f0
:040004000100fefffa
:020000040000fa
:020000040a00f0
:040008000100fefff6
:020000040000fa
:020000040a00f0
:04000c000100fefff2
:020000040000fa
:020000040a00f0
:040010000100feffee
:020000040000fa
:020000040a00f0
:040014000100feffea
:020000040000fa
:020000040a00f0
:040018000100feffe6
:020000040000fa
:020000040a00f0
:04001c000100feffe2
:020000040000fa
:020000040a00f0
:04002000ffffffffe0
:020000040000fa
:020000040a00f0
:04002400ffffffffdc
:020000040000fa
:020000040a00f0
:04002800ffffffffd8
:020000040000fa
:020000040a00f0
:04002c00ffffffffd4
:020000040000fa
:020000040a00f0
:04003000ffffffffd0
:020000040000fa
:020000040a00f0
:04003400ffffffffcc
:020000040000fa
:020000040a00f0
:04003800ffffffffc8
:020000040000fa
:020000040a00f0
:04003c00ffffffffc4
:020000040000fa
:020000040a00f0
:0400400000000000bc
:020000040000fa
:020000040a00f0
:04004400ffffffffbc
:020000040000fa
:020000040a00f0
:0400480007000000ad
:020000040000fa
:020000040a00f0
:04004c00ff050000ac
:020000040000fa
:020000040a00f0
:040054000f0f00008a
:020000040000fa
:020000040a00f0
:040058007000000034
:020000040000fa
:020000040a00f0
:04005c00020000009e
:020000040000fa
:020000040a00f0
:04006000000000009c
:020000040000fa
:020000040a00f0
:040064000202000094
:020000040000fa
:020000040a00f0
:04200000000000c01c
:020000040000fa
:020000040a00f0
:042004000100feffda
:020000040000fa
:020000040a00f0
:04200800ffffffffd8
:020000040000fa
:020000040a00f0
:04202000ffffffffc0
:020000040000fa
:020000040a00f0
:04202400ffffffffbc
:020000040000fa
:020000040a00f0
:04202800ffffffffb8
:020000040000fa
:020000040a00f0
:04202c00ffffffffb4
:020000040000fa
:020000040a00f0
:04203000ffffffffb0
:020000040000fa
:020000040a00f0
:04203400ffffffffac
:020000040000fa
:020000040a00f0
:04203800ffffffffa8
:020000040000fa
:020000040a00f0
:04203c00ffffffffa4
:020000040000fa
:020000040a00f0
:04204000ffffffffa0
:020000040000fa
:020000040a00f0
:04204400ffffffff9c
:020000040000fa
:020000040a00f0
:04204800ffffffff98
:020000040000fa
:020000040a00f0
:04204c00ffffffff94
:020000040000fa
:020000040a00f0
:04205000ffffffff90
:020000040000fa
:020000040a00f0
:04205400ffffffff8c
:020000040000fa
:020000040a00f0
:04205800ffffffff88
:020000040000fa
:020000040a00f0
:04205c00ffffffff84
:020000040000fa
:020000040a00f0
:04206000ffffffff80
:020000040000fa
:020000040a00f0
:04206400ffffffff7c
:020000040000fa
:020000040a00f0
:04206800ffffffff78
:020000040000fa
:020000040a00f0
:04206c00ffffffff74
:020000040000fa
:020000040a00f0
:04207000ffffffff70
:020000040000fa
:020000040a00f0
:04207400ffffffff6c
:020000040000fa
:020000040a00f0
:04207800ffffffff68
:020000040000fa
:020000040a00f0
:04207c00ffffffff64
:020000040000fa
:020000040a00f0
:04208000ffffffff60
:020000040000fa
:020000040a00f0
:04208400ffffffff5c
:020000040000fa
:020000040a00f0
:04208800ffffffff58
:020000040000fa
:020000040a00f0
:04208c00ffffffff54
:020000040000fa
:020000040a00f0
:04209000ffffffff50
:020000040000fa
:020000040a00f0
:04209400ffffffff4c
:020000040000fa
:020000040a00f0
:04209800ffffffff48
:020000040000fa
:020000040a00f0
:04209c00ffffffff44
:020000040000fa
:020000040a00f0
:0420a000ffffffff40
:020000040000fa
:020000040a00f0
:0420a400ffffffff3c
:020000040000fa
:020000040a00f0
:0420a800ffffffff38
:020000040000fa
:020000040a00f0
:0420ac00ffffffff34
:020000040000fa
:020000040a00f0
:0420b000ffffffff30
:020000040000fa
:020000040a00f0
:0420b400ffffffff2c
:020000040000fa
:020000040a00f0
:0420b800ffffffff28
:020000040000fa
:020000040a00f0
:0420bc00ffffffff24
:020000040000fa
:020000040a00f0
:0420c000ffffffff20
:020000040000fa
:020000040a00f0
:0420c400ffffffff1c
:020000040000fa
:020000040a00f0
:0420c800ffffffff18
:020000040000fa
:020000040a00f0
:0420cc00ffffffff14
:020000040000fa
:020000040a00f0
:0420d000ffffffff10
:020000040000fa
:020000040a00f0
:0420d400ffffffff0c
:020000040000fa
:020000040a00f0
:0420d800ffffffff08
:020000040000fa
:020000040a00f0
:0420dc00ffffffff04
:020000040000fa
:020000040a00f0
:0420e00006070000ef
:020000040000fa
:020000040a00f0
:0420e40004cf0f0016
:020000040000fa
:020000040a00f0
:0420e80036f70707b9
:020000040000fa
:020000040a00f0
:0420ec00863a000030
:020000040000fa
:020000040a00f0
:0420f000ff030000ea
:020000040000fa
:020000040a00f0
:0420f4003f000000a9
:020000040000fa
:020000040a00f0
:0420f800bf00000025
:020000040000fa
:020000040a00f0
:0420fc00ffffffffe4
:020000040000fa
:020000040a00f0
:04210000ffffffffdf
:020000040000fa
:020000040a00f0
:04211000ffffffffcf
:020000040000fa
:020000040a00f0
:04211400ffffffffcb
:020000040000fa
:020000040a00f0
:04211800ffffffffc7
:020000040000fa
:020000040a00f0
:04211c00ffffffffc3
:020000040000fa
:020000040a00f0
:04212000ffffffffbf
:020000040000fa
:020000040a00f0
:048000000000ffff7e
:020000040000fa
:020000040a00f0
:048004000000ffff7a
:020000040000fa
:020000040a00f0
:048008000000ffff76
:020000040000fa
:020000040a00f0
:04800c000000ffff72
:020000040000fa
:020000040a00f0
:048010000000ffff6e
:020000040000fa
:020000040a00f0
:048014000000ffff6a
:020000040000fa
:020000040a00f0
:048018000000ffff66
:020000040000fa
:020000040a00f0
:04801c000000ffff62
:020000040000fa
:020000040a00f0
:04802000ffffffff60
:020000040000fa
:020000040a00f0
:04802400ffffffff5c
:020000040000fa
:020000040a00f0
:04802800ffffffff58
:020000040000fa
:020000040a00f0
:04802c00ffffffff54
:020000040000fa
:020000040a00f0
:04803000ffffffff50
:020000040000fa
:020000040a00f0
:04803400ffffffff4c
:020000040000fa
:020000040a00f0
:04803800ffffffff48
:020000040000fa
:020000040a00f0
:04803c00ffffffff44
:020000040000fa
:020000040a00f0
:0480400044000000f8
:020000040000fa
:020000040a00f0
:04804400ffffffff3c
:020000040000fa
:020000040a00f0
:04804800070000002d
:020000040000fa
:020000040a00f0
:04804c00ff0500002c
:020000040000fa
:020000040a00f0
:048054000f0f00000a
:020000040000fa
:020000040a00f0
:0480580070000000b4
:020000040000fa
:020000040a00f0
:04805c00020000001e
:020000040000fa
:020000040a00f0
:04806000000000001c
:020000040000fa
:020000040a00f0
:048064000202000014
:020000040000fa
:020000040a00f0
:04a00000000000c09c
:020000040000fa
:020000040a00f0
:04a004000000ffff5a
:020000040000fa
:020000040a00f0
:04a00800ffffffff58
:020000040000fa
:020000040a00f0
:04a02000ffffffff40
:020000040000fa
:020000040a00f0
:04a02400ffffffff3c
:020000040000fa
:020000040a00f0
:04a02800ffffffff38
:020000040000fa
:020000040a00f0
:04a02c00ffffffff34
:020000040000fa
:020000040a00f0
:04a03000ffffffff30
:020000040000fa
:020000040a00f0
:04a03400ffffffff2c
:020000040000fa
:020000040a00f0
:04a03800ffffffff28
:020000040000fa
:020000040a00f0
:04a03c00ffffffff24
:020000040000fa
:020000040a00f0
:04a04000ffffffff20
:020000040000fa
:020000040a00f0
:04a04400ffffffff1c
:020000040000fa
:020000040a00f0
:04a04800ffffffff18
:020000040000fa
:020000040a00f0
:04a04c00ffffffff14
:020000040000fa
:020000040a00f0
:04a05000ffffffff10
:020000040000fa
:020000040a00f0
:04a05400ffffffff0c
:020000040000fa
:020000040a00f0
:04a05800ffffffff08
:020000040000fa
:020000040a00f0
:04a05c00ffffffff04
:020000040000fa
:020000040a00f0
:04a06000ffffffff00
:020000040000fa
:020000040a00f0
:04a06400fffffffffc
:020000040000fa
:020000040a00f0
:04a06800fffffffff8
:020000040000fa
:020000040a00f0
:04a06c00fffffffff4
:020000040000fa
:020000040a00f0
:04a07000fffffffff0
:020000040000fa
:020000040a00f0
:04a07400ffffffffec
:020000040000fa
:020000040a00f0
:04a07800ffffffffe8
:020000040000fa
:020000040a00f0
:04a07c00ffffffffe4
:020000040000fa
:020000040a00f0
:04a08000ffffffffe0
:020000040000fa
:020000040a00f0
:04a08400ffffffffdc
:020000040000fa
:020000040a00f0
:04a08800ffffffffd8
:020000040000fa
:020000040a00f0
:04a08c00ffffffffd4
:020000040000fa
:020000040a00f0
:04a09000ffffffffd0
:020000040000fa
:020000040a00f0
:04a09400ffffffffcc
:020000040000fa
:020000040a00f0
:04a09800ffffffffc8
:020000040000fa
:020000040a00f0
:04a09c00ffffffffc4
:020000040000fa
:020000040a00f0
:04a0a000ffffffffc0
:020000040000fa
:020000040a00f0
:04a0a400ffffffffbc
:020000040000fa
:020000040a00f0
:04a0a800ffffffffb8
:020000040000fa
:020000040a00f0
:04a0ac00ffffffffb4
:020000040000fa
:020000040a00f0
:04a0b000ffffffffb0
:020000040000fa
:020000040a00f0
:04a0b400ffffffffac
:020000040000fa
:020000040a00f0
:04a0b800ffffffffa8
:020000040000fa
:020000040a00f0
:04a0bc00ffffffffa4
:020000040000fa
:020000040a00f0
:04a0c000ffffffffa0
:020000040000fa
:020000040a00f0
:04a0c400ffffffff9c
:020000040000fa
:020000040a00f0
:04a0c800ffffffff98
:020000040000fa
:020000040a00f0
:04a0cc00ffffffff94
:020000040000fa
:020000040a00f0
:04a0d000ffffffff90
:020000040000fa
:020000040a00f0
:04a0d400ffffffff8c
:020000040000fa
:020000040a00f0
:04a0d800ffffffff88
:020000040000fa
:020000040a00f0
:04a0dc00ffffffff84
:020000040000fa
:020000040a00f0
:04a0e000060700006f
:020000040000fa
:020000040a00f0
:04a0e40004cf0f0096
:020000040000fa
:020000040a00f0
:04a0e80036f7070739
:020000040000fa
:020000040a00f0
:04a0ec00863a0000b0
:020000040000fa
:020000040a00f0
:04a0f000ff0300006a
:020000040000fa
:020000040a00f0
:04a0f4003f00000029
:020000040000fa
:020000040a00f0
:04a0f800bf000000a5
:020000040000fa
:020000040a00f0
:04a0fc00ffffffff64
:020000040000fa
:020000040a00f0
:04a10000ffffffff5f
:020000040000fa
:020000040a00f0
:04a11000ffffffff4f
:020000040000fa
:020000040a00f0
:04a11400ffffffff4b
:020000040000fa
:020000040a00f0
:04a11800ffffffff47
:020000040000fa
:020000040a00f0
:04a11c00ffffffff43
:020000040000fa
:020000040a00f0
:04a12000ffffffff3f
:020000040000fa
:020000040c00ee
:10000000f8b500bff8bc08bc9e467047bd03000ca5
:10001000f8b500bff8bc08bc9e4670479903000cb9
:020000040000fa
:020000040c00ee
:10002000244b01221a61244ad36943f48033d361fb
:10003000d36813f4807ffbd0204b0c229a64f0220b
:100040005a640022da661a46936f13f0400ffbd110
:100050001a4a8823d364136c43f4206343f00203e9
:100060001364136913f0807ffbd0154b154a1a6295
:100070001a46536813f0040ffbd1114b124a5a620f
:100080001a46536813f0080ffbd10d4b4122c3f8f9
:1000900094201a46d2f8943013f0400ffad0084b4f
:1000a0004122c3f898201a46d2f8983013f0400f36
:1000b000fad0704700e000440080004400c00044d3
:0c00c000000001440601010006010200de
:020000040000fa
:020000040c00ee
:1000cc0008b5194b9847194b9847eff3108172b646
:1000dc00174ad2f8883043f47003c2f88830bff363
:1000ec004f8fbff36f8f01b962b6124a936823f03a
:1000fc00010393601346da6812f0010ffbd10d4b2c
:10010c0024225a6001229a6000f080f90a4b23f0f5
:10011c007f03074a9360094b9847094b9847094b53
:10012c00984700f053f8fee76905000c6905000cd0
:10013c0000ed00e00080804400000008b502000cd7
:08014c006905000c6905000cb7
:020000040000fa
:020000040c00ee
:100154001e4a137843f001031370536813f0010f20
:10016400fbd11a490023cb6133230b624ff4407354
:100174008b610b61164b10221a721a7583f82020ba
:1001840083f82c2083f8382083f8442083f8502007
:1001940083f85c20082083f86800092083f8740041
:1001a40083f8802083f88c2083f8982083f8a42097
:1001b40083f8b02083f8bc200b7843f002030b7063
:1001c4000a46536813f0020ffbd1704700a00144a4
:0401d4000000002007
:020000040000fa
:020000040c00ee
:1001d80008b5002000f083f91a4c002221460920b6
:1001e80000f032f900222146082000f02df94ff0e6
:1001f80089430122c3f898204ff48062c3f89821fc
:100208004ff48072c3f894214ff40062c3f894212c
:100218004ff40072c3f894210b4c0de04ff0894560
:100228004ff40066c5f898610a2000f06df8c5f82b
:1002380094610a2000f068f82368002beed0013b97
:0c0248002360f9e70505000c30010020e0
:020000040000fa
:020000040c00ee
:10025400100100201c00000000000000000000202d
:10026400c0000000000000002c0100200400000079
:100274000000000030010020080000000000000021
:10028400380100200400000000000000c00000202d
:1002940050000000000000003c01002004000000a9
:1002a40000000000000000000000000066666666b2
:020000040000fa
:020000040c00ee
:1002b40038b50e4a00230e4c13600e4a0e4d1360df
:1002c4000e4a13600e4a13600e4a13600e4a5362bc
:1002d40013610123936000f047f900f045f9ac4243
:1002e40000d338bd54f8043b9847f8e73c0100209c
:1002f4000c00000ccc0000201000000cc8000020f2
:0c030400c0000020c4000020d000002039
:020000040000fa
:020000040c00ee
:10031000f0b400260d4a16600d4a166032460127d9
:1003200044f268253c4631460023824206d201331e
:100330002146ab42f9d901323e46f4e709b10449fe
:100340000b600eb1014b1a60f0bc70472c0100200d
:040350003401002054
:020000040000fa
:020000040c00ee
:100354004ff08943012183f8481083f849100022a3
:1003640083f83420c3f8801083f8c02083f8b020c9
:100374004ff47061c3f8801183f8c82183f8c92150
:1003840083f8ca2183f8cb2183f8b42183f8b521fb
:020394007047b0
:020000040000fa
:020000040c00ee
:02039600fee780
:020000040000fa
:020000040c00ee
:1003980010b5054c227832b9044b13b1044800e07b
:1003a80000bf0123237010bd1001002000000000d1
:1003b8000000000008b5034b1bb10349034800e0e7
:1003c80000bf08bd0000000014010020000000006c
:020000040000fa
:020000040c00ee
:1003d8000d4ad36823f4e0631b041b0c43f0bf638e
:1003e80043f40033d360bff35f8f62b6074be0225c
:1003f80083f815234ff40011196083f816234ff47e
:1004080080021a60704700bf00ed00e000e100e0e4
:020000040000fa
:020000040c00ee
:1004180070b50b484ff6ff760a4d016821b943685d
:1004280013b900f09ef870bd836800f10c044268af
:100438003340204655f82330984704eb8000ece71a
:080448005402000c1c05000c1d
:020000040000fa
:020000040c00ee
:1004500030b400eb4004094b03eb84031b7adbb29e
:10046000834201d030bc7047044b44002518ad00d6
:100470005951204403eb80035a60f3e70000002049
:020000040000fa
:020000040c00ee
:1004800008b5064b4ff480725a615b69044b1b6ed2
:100490001bb1034b586e1b6e984708bd00a001446a
:0404a0000000002038
:020000040000fa
:020000040c00ee
:1004a40008b5064b4ff400725a615b69044bdb6e6e
:1004b4001bb1034b186fdb6e984708bd00a00144c5
:0404c4000000002014
:020000040000fa
:020000040c00ee
:1004c800002310b5934206d113f0030018bf012092
:0e04d80000eb930010bdc45ccc540133f2e77e
:020000040000fa
:020000040c00ee
:1004e60008b5fff734fffff798fd00f028f800f095
:0c04f6002ef8fff72cfefff76cff08bd8e
:020000040000fa
:020000040c00ee
:02050200fee712
:020000040000fa
:020000040c00ee
:100504004ff089430122c3f89c20024a1368013347
:08051400136070473001002064
:020000040000fa
:020000040c00ee
:10051c003105000cc904000c6505000c6505000cc8
:04052c006505000c55
:020000040000fa
:020000040c00ee
:100530000a440023914201d10020704701f8013b99
:02054000f8e7da
:020000040000fa
:020000040c00ee
:02054200fee7d2
:020000040000fa
:020000040c00ee
:10054400024b40f61d421a62704700bf00e080442f
:020000040000fa
:020000040c00ee
:10055400024b04221a725a72704700bf00600044b2
:020000040000fa
:020000040c00ee
:0405640000207047bc
:020000040000fa
:020000040c00ee
:020568007047da
:020000040000fa
:020000040c00ee
:02056a007047d8
:020000040000fa
:020000040c00ee
:02056c007047d6
:00000001FF
