:020000040000fa
:020000040800f2
:10000000f8ff0320a103000c1f07000c4507000c9c
:10001000ab06000cab06000cab06000cab06000cec
:10002000000000000000000000000000ab06000c13
:10003000ab06000c00000000ab06000cab06000c89
:10004000ab06000cab06000cab06000cab06000cbc
:10005000ab06000cab06000cab06000cab06000cac
:10006000ab06000cab06000cab06000cab06000c9c
:10007000ab06000cab06000cab06000cab06000c8c
:10008000ab06000cab06000cab06000cab06000c7c
:100090000506000c2906000c4d06000cab06000cf2
:1000a000ab06000cab06000cab06000cab06000c5c
:1000b000ab06000cab06000cab06000cab06000c4c
:1000c000ab06000cab06000cab06000cab06000c3c
:1000d000ab06000cab06000cab06000cab06000c2c
:020000040000fa
:020000040a00f0
:040000000100fefffe
:020000040000fa
:020000040a00f0
:040004000100fefffa
:020000040000fa
:020000040a00f0
:040008000100fefff6
:020000040000fa
:020000040a00f0
:04000c000100fefff2
:020000040000fa
:020000040a00f0
:040010000100feffee
:020000040000fa
:020000040a00f0
:040014000100feffea
:020000040000fa
:020000040a00f0
:040018000100feffe6
:020000040000fa
:020000040a00f0
:04001c000100feffe2
:020000040000fa
:020000040a00f0
:04002000ffffffffe0
:020000040000fa
:020000040a00f0
:04002400ffffffffdc
:020000040000fa
:020000040a00f0
:04002800ffffffffd8
:020000040000fa
:020000040a00f0
:04002c00ffffffffd4
:020000040000fa
:020000040a00f0
:04003000ffffffffd0
:020000040000fa
:020000040a00f0
:04003400ffffffffcc
:020000040000fa
:020000040a00f0
:04003800ffffffffc8
:020000040000fa
:020000040a00f0
:04003c00ffffffffc4
:020000040000fa
:020000040a00f0
:0400400000000000bc
:020000040000fa
:020000040a00f0
:04004400ffffffffbc
:020000040000fa
:020000040a00f0
:0400480007000000ad
:020000040000fa
:020000040a00f0
:04004c00ff050000ac
:020000040000fa
:020000040a00f0
:040054000f0f00008a
:020000040000fa
:020000040a00f0
:040058007000000034
:020000040000fa
:020000040a00f0
:04005c00020000009e
:020000040000fa
:020000040a00f0
:04006000000000009c
:020000040000fa
:020000040a00f0
:040064000202000094
:020000040000fa
:020000040a00f0
:04200000000000c01c
:020000040000fa
:020000040a00f0
:042004000100feffda
:020000040000fa
:020000040a00f0
:04200800ffffffffd8
:020000040000fa
:020000040a00f0
:04202000ffffffffc0
:020000040000fa
:020000040a00f0
:04202400ffffffffbc
:020000040000fa
:020000040a00f0
:04202800ffffffffb8
:020000040000fa
:020000040a00f0
:04202c00ffffffffb4
:020000040000fa
:020000040a00f0
:04203000ffffffffb0
:020000040000fa
:020000040a00f0
:04203400ffffffffac
:020000040000fa
:020000040a00f0
:04203800ffffffffa8
:020000040000fa
:020000040a00f0
:04203c00ffffffffa4
:020000040000fa
:020000040a00f0
:04204000ffffffffa0
:020000040000fa
:020000040a00f0
:04204400ffffffff9c
:020000040000fa
:020000040a00f0
:04204800ffffffff98
:020000040000fa
:020000040a00f0
:04204c00ffffffff94
:020000040000fa
:020000040a00f0
:04205000ffffffff90
:020000040000fa
:020000040a00f0
:04205400ffffffff8c
:020000040000fa
:020000040a00f0
:04205800ffffffff88
:020000040000fa
:020000040a00f0
:04205c00ffffffff84
:020000040000fa
:020000040a00f0
:04206000ffffffff80
:020000040000fa
:020000040a00f0
:04206400ffffffff7c
:020000040000fa
:020000040a00f0
:04206800ffffffff78
:020000040000fa
:020000040a00f0
:04206c00ffffffff74
:020000040000fa
:020000040a00f0
:04207000ffffffff70
:020000040000fa
:020000040a00f0
:04207400ffffffff6c
:020000040000fa
:020000040a00f0
:04207800ffffffff68
:020000040000fa
:020000040a00f0
:04207c00ffffffff64
:020000040000fa
:020000040a00f0
:04208000ffffffff60
:020000040000fa
:020000040a00f0
:04208400ffffffff5c
:020000040000fa
:020000040a00f0
:04208800ffffffff58
:020000040000fa
:020000040a00f0
:04208c00ffffffff54
:020000040000fa
:020000040a00f0
:04209000ffffffff50
:020000040000fa
:020000040a00f0
:04209400ffffffff4c
:020000040000fa
:020000040a00f0
:04209800ffffffff48
:020000040000fa
:020000040a00f0
:04209c00ffffffff44
:020000040000fa
:020000040a00f0
:0420a000ffffffff40
:020000040000fa
:020000040a00f0
:0420a400ffffffff3c
:020000040000fa
:020000040a00f0
:0420a800ffffffff38
:020000040000fa
:020000040a00f0
:0420ac00ffffffff34
:020000040000fa
:020000040a00f0
:0420b000ffffffff30
:020000040000fa
:020000040a00f0
:0420b400ffffffff2c
:020000040000fa
:020000040a00f0
:0420b800ffffffff28
:020000040000fa
:020000040a00f0
:0420bc00ffffffff24
:020000040000fa
:020000040a00f0
:0420c000ffffffff20
:020000040000fa
:020000040a00f0
:0420c400ffffffff1c
:020000040000fa
:020000040a00f0
:0420c800ffffffff18
:020000040000fa
:020000040a00f0
:0420cc00ffffffff14
:020000040000fa
:020000040a00f0
:0420d000ffffffff10
:020000040000fa
:020000040a00f0
:0420d400ffffffff0c
:020000040000fa
:020000040a00f0
:0420d800ffffffff08
:020000040000fa
:020000040a00f0
:0420dc00ffffffff04
:020000040000fa
:020000040a00f0
:0420e00006070000ef
:020000040000fa
:020000040a00f0
:0420e40004cf0f0016
:020000040000fa
:020000040a00f0
:0420e80036f70707b9
:020000040000fa
:020000040a00f0
:0420ec00863a000030
:020000040000fa
:020000040a00f0
:0420f000ff030000ea
:020000040000fa
:020000040a00f0
:0420f4003f000000a9
:020000040000fa
:020000040a00f0
:0420f800bf00000025
:020000040000fa
:020000040a00f0
:0420fc00ffffffffe4
:020000040000fa
:020000040a00f0
:04210000ffffffffdf
:020000040000fa
:020000040a00f0
:04211000ffffffffcf
:020000040000fa
:020000040a00f0
:04211400ffffffffcb
:020000040000fa
:020000040a00f0
:04211800ffffffffc7
:020000040000fa
:020000040a00f0
:04211c00ffffffffc3
:020000040000fa
:020000040a00f0
:04212000ffffffffbf
:020000040000fa
:020000040a00f0
:048000000000ffff7e
:020000040000fa
:020000040a00f0
:048004000000ffff7a
:020000040000fa
:020000040a00f0
:048008000000ffff76
:020000040000fa
:020000040a00f0
:04800c000000ffff72
:020000040000fa
:020000040a00f0
:048010000000ffff6e
:020000040000fa
:020000040a00f0
:048014000000ffff6a
:020000040000fa
:020000040a00f0
:048018000000ffff66
:020000040000fa
:020000040a00f0
:04801c000000ffff62
:020000040000fa
:020000040a00f0
:04802000ffffffff60
:020000040000fa
:020000040a00f0
:04802400ffffffff5c
:020000040000fa
:020000040a00f0
:04802800ffffffff58
:020000040000fa
:020000040a00f0
:04802c00ffffffff54
:020000040000fa
:020000040a00f0
:04803000ffffffff50
:020000040000fa
:020000040a00f0
:04803400ffffffff4c
:020000040000fa
:020000040a00f0
:04803800ffffffff48
:020000040000fa
:020000040a00f0
:04803c00ffffffff44
:020000040000fa
:020000040a00f0
:0480400044000000f8
:020000040000fa
:020000040a00f0
:04804400ffffffff3c
:020000040000fa
:020000040a00f0
:04804800070000002d
:020000040000fa
:020000040a00f0
:04804c00ff0500002c
:020000040000fa
:020000040a00f0
:048054000f0f00000a
:020000040000fa
:020000040a00f0
:0480580070000000b4
:020000040000fa
:020000040a00f0
:04805c00020000001e
:020000040000fa
:020000040a00f0
:04806000000000001c
:020000040000fa
:020000040a00f0
:048064000202000014
:020000040000fa
:020000040a00f0
:04a00000000000c09c
:020000040000fa
:020000040a00f0
:04a004000000ffff5a
:020000040000fa
:020000040a00f0
:04a00800ffffffff58
:020000040000fa
:020000040a00f0
:04a02000ffffffff40
:020000040000fa
:020000040a00f0
:04a02400ffffffff3c
:020000040000fa
:020000040a00f0
:04a02800ffffffff38
:020000040000fa
:020000040a00f0
:04a02c00ffffffff34
:020000040000fa
:020000040a00f0
:04a03000ffffffff30
:020000040000fa
:020000040a00f0
:04a03400ffffffff2c
:020000040000fa
:020000040a00f0
:04a03800ffffffff28
:020000040000fa
:020000040a00f0
:04a03c00ffffffff24
:020000040000fa
:020000040a00f0
:04a04000ffffffff20
:020000040000fa
:020000040a00f0
:04a04400ffffffff1c
:020000040000fa
:020000040a00f0
:04a04800ffffffff18
:020000040000fa
:020000040a00f0
:04a04c00ffffffff14
:020000040000fa
:020000040a00f0
:04a05000ffffffff10
:020000040000fa
:020000040a00f0
:04a05400ffffffff0c
:020000040000fa
:020000040a00f0
:04a05800ffffffff08
:020000040000fa
:020000040a00f0
:04a05c00ffffffff04
:020000040000fa
:020000040a00f0
:04a06000ffffffff00
:020000040000fa
:020000040a00f0
:04a06400fffffffffc
:020000040000fa
:020000040a00f0
:04a06800fffffffff8
:020000040000fa
:020000040a00f0
:04a06c00fffffffff4
:020000040000fa
:020000040a00f0
:04a07000fffffffff0
:020000040000fa
:020000040a00f0
:04a07400ffffffffec
:020000040000fa
:020000040a00f0
:04a07800ffffffffe8
:020000040000fa
:020000040a00f0
:04a07c00ffffffffe4
:020000040000fa
:020000040a00f0
:04a08000ffffffffe0
:020000040000fa
:020000040a00f0
:04a08400ffffffffdc
:020000040000fa
:020000040a00f0
:04a08800ffffffffd8
:020000040000fa
:020000040a00f0
:04a08c00ffffffffd4
:020000040000fa
:020000040a00f0
:04a09000ffffffffd0
:020000040000fa
:020000040a00f0
:04a09400ffffffffcc
:020000040000fa
:020000040a00f0
:04a09800ffffffffc8
:020000040000fa
:020000040a00f0
:04a09c00ffffffffc4
:020000040000fa
:020000040a00f0
:04a0a000ffffffffc0
:020000040000fa
:020000040a00f0
:04a0a400ffffffffbc
:020000040000fa
:020000040a00f0
:04a0a800ffffffffb8
:020000040000fa
:020000040a00f0
:04a0ac00ffffffffb4
:020000040000fa
:020000040a00f0
:04a0b000ffffffffb0
:020000040000fa
:020000040a00f0
:04a0b400ffffffffac
:020000040000fa
:020000040a00f0
:04a0b800ffffffffa8
:020000040000fa
:020000040a00f0
:04a0bc00ffffffffa4
:020000040000fa
:020000040a00f0
:04a0c000ffffffffa0
:020000040000fa
:020000040a00f0
:04a0c400ffffffff9c
:020000040000fa
:020000040a00f0
:04a0c800ffffffff98
:020000040000fa
:020000040a00f0
:04a0cc00ffffffff94
:020000040000fa
:020000040a00f0
:04a0d000ffffffff90
:020000040000fa
:020000040a00f0
:04a0d400ffffffff8c
:020000040000fa
:020000040a00f0
:04a0d800ffffffff88
:020000040000fa
:020000040a00f0
:04a0dc00ffffffff84
:020000040000fa
:020000040a00f0
:04a0e000060700006f
:020000040000fa
:020000040a00f0
:04a0e40004cf0f0096
:020000040000fa
:020000040a00f0
:04a0e80036f7070739
:020000040000fa
:020000040a00f0
:04a0ec00863a0000b0
:020000040000fa
:020000040a00f0
:04a0f000ff0300006a
:020000040000fa
:020000040a00f0
:04a0f4003f00000029
:020000040000fa
:020000040a00f0
:04a0f800bf000000a5
:020000040000fa
:020000040a00f0
:04a0fc00ffffffff64
:020000040000fa
:020000040a00f0
:04a10000ffffffff5f
:020000040000fa
:020000040a00f0
:04a11000ffffffff4f
:020000040000fa
:020000040a00f0
:04a11400ffffffff4b
:020000040000fa
:020000040a00f0
:04a11800ffffffff47
:020000040000fa
:020000040a00f0
:04a11c00ffffffff43
:020000040000fa
:020000040a00f0
:04a12000ffffffff3f
:020000040000fa
:020000040c00ee
:10000000f8b500bff8bc08bc9e4670478105000cdf
:10001000f8b500bff8bc08bc9e4670475d05000cf3
:020000040000fa
:020000040c00ee
:1000200080b5002000f033fb00226149092000f078
:10003000d1fa00225f49082000f0ccfa00225e4984
:10004000072000f0c7fa00235c4a136001225c49d4
:100050000a705c490b705c490b605c4b19685c4b27
:1000600019604ff08943c3f898204ff48062c3f8b9
:1000700098214ff48072c3f894214ff40062c3f8c2
:1000800094214ff40072c3f894211e464ff400658a
:1000900014244c4fc6f89851204600f03dfac6f89b
:1000a0009451204600f038fa3b78002bf2d04ff004
:1000b00089434ff48072c3f898210023454a1360a6
:1000c0003e4a13601446424d4ff400663e4f24e012
:1000d0004ff089434ff40072c3f894214ff08948e0
:1000e000c8f89861142000f017fac8f89461142039
:1000f00000f012fa22682b689a4247d0354b1b68f1
:1001000043b12f49097800294cd013442360314b67
:1001100000221a60642000f0fff922682b689a42de
:1001200010d92749002008704ff089414ff48070a2
:10013000c1f89401d31a132bcad84ff40072c1f836
:100140009821cbe71e49012008704ff089414ff4f8
:100150008070c1f898019b1a132b10d84ff40072cd
:10016000c1f898214ff08948c8f89861142000f030
:10017000d3f9c8f89461142000f0cef9bae74ff033
:1001800089434ff40072c3f89421ebe73b680133d5
:10019000032b88bf00233b6039680c4b53f8213098
:1001a0002b60abe79a4234bf0023d31a2360aee73b
:1001b000c906000cad06000ce506000c400100204d
:1001c0004d0100204e010020300100205001002090
:0801d0003c0100203401002075
:020000040000fa
:020000040c00ee
:1001d800244b01221a61244ad36943f48033d36142
:1001e800d36813f4807ffbd0204b0c229a64f02252
:1001f8005a640022da661a46936f13f0400ffbd157
:100208001a4a8823d364136c43f4206343f002032f
:100218001364136913f0807ffbd0154b154a1a62db
:100228001a46536813f0040ffbd1114b124a5a6255
:100238001a46536813f0080ffbd10d4b4122c3f83f
:1002480094201a46d2f8943013f0400ffad0084b95
:100258004122c3f898201a46d2f8983013f0400f7c
:10026800fad0704700e000440080004400c0004419
:0c02780000000144060101000601020024
:020000040000fa
:020000040c00ee
:10028400100100201c0000000000000000000020fd
:10029400c0000000000000002c0100200800000045
:1002a400000000004c0100200200000000000000db
:1002b4003401002010000000000000004e01002066
:1002c40001000000000000005001002010000000a8
:1002d40001000000000100002010000000020000e6
:1002e400000400004401002004000000000000009d
:1002f400c000002050000000000000004801002061
:1003040004000000000000000000000000000000e5
:020000040000fa
:020000040c00ee
:10031400204a137843f001031370536813f0010f5c
:10032400fbd11c494ff08053cb6133230b624ff454
:1003340040738b614ff460730b61174b10221a7278
:100344001a7583f8202083f82c2083f8382083f84a
:10035400442083f85020072083f85c00082083f8a9
:100364006800092083f8740083f8802083f88c20c7
:1003740083f8982083f8a42083f8b02083f8bc2065
:100384000b7843f002030b700a46536813f0020f14
:0c039400fbd1704700a0014400000020d5
:020000040000fa
:020000040c00ee
:1003a00008b5194b9847194b9847eff3108172b66f
:1003b000174ad2f8883043f47003c2f88830bff38c
:1003c0004f8fbff36f8f01b962b6124a936823f063
:1003d000010393601346da6812f0010ffbd10d4b55
:1003e00024225a6001229a6000f0d8f80a4b23f0c8
:1003f0007f03074a9360094b9847094b9847094b7d
:100400009847fff70dfefee74707000c4707000c73
:1004100000ed00e000808044000000082904000c8a
:080420004707000c4707000c20
:020000040000fa
:020000040c00ee
:1004280038b50e4a00230e4c13600e4a0e4d136069
:100438000e4a13600e4a13600e4a13600e4a536246
:1004480013610123936000f07cf900f07af9ac4263
:1004580000d338bd54f8043b9847f8e7480100201a
:100468000c00000ccc0000201000000cc80000207c
:0c047800c0000020c4000020d0000020c4
:020000040000fa
:020000040c00ee
:100484004ff08943072283f84720012183f848105d
:1004940083f84910002283f8332083f83420c3f80a
:1004a400801083f8c02083f8b0204ff47061c3f843
:1004b400801183f8c82183f8c92183f8ca2183f8fd
:0c04c400cb2183f8b42183f8b5217047e8
:020000040000fa
:020000040c00ee
:1004d0000f4ad36823f4e0631b041b0c43f0bf6393
:1004e00043f40033d360bff35f8f62b6094be02261
:1004f00083f814234ff48011196083f815234ff407
:100500000011196083f816234ff480021a607047b7
:0805100000ed00e000e100e055
:020000040000fa
:020000040c00ee
:10051800f0b400260d4a16600d4a166032460127cf
:1005280044f268253c4631460023824206d2013314
:100538002146ab42f9d901323e46f4e709b10449f4
:100548000b600eb1014b1a60f0bc70472c01002003
:040558003801002046
:020000040000fa
:020000040c00ee
:10055c0010b5054c227832b9044b13b1044800e0b5
:10056c0000bf0123237010bd10010020000000000b
:10057c000000000008b5034b1bb10349034800e021
:10058c0000bf08bd000000001401002000000000a6
:020000040000fa
:020000040c00ee
:10059c0070b50b484ff6ff760a4d016821b94368d8
:1005ac0013b900f0cbf870bd836800f10c044268fd
:1005bc003340204655f82330984704eb8000ece795
:0805cc008402000cf806000c8b
:020000040000fa
:020000040c00ee
:1005d40030b400eb4004094b03eb84031b7adbb219
:1005e400834201d030bc7047044b44002518ad0051
:1005f4005951204403eb80035a60f3e700000020c4
:020000040000fa
:020000040c00ee
:1006040008b5064b80225a615b69054b5b6d1bb1d3
:10061400034b986d5b6d984708bd00bf00a0014473
:0406240000000020b2
:020000040000fa
:020000040c00ee
:1006280008b5064b4ff480725a615b69044b1b6e28
:100638001bb1034b586e1b6e984708bd00a00144c0
:04064800000000208e
:020000040000fa
:020000040c00ee
:10064c0008b5064b4ff400725a615b69044bdb6ec4
:10065c001bb1034b186fdb6e984708bd00a001441b
:04066c00000000206a
:020000040000fa
:020000040c00ee
:10067000002310b5934206d113f0030018bf0120e8
:0e06800000eb930010bdc45ccc540133f2e7d4
:020000040000fa
:020000040c00ee
:10068e0008b5fff7f8fefff7a0fd00f042f800f006
:0c069e0048f8fff738fefff714ff08bd16
:020000040000fa
:020000040c00ee
:0206aa00fee769
:020000040000fa
:020000040c00ee
:1006ac00044b1b6813b9044a012111700133014a30
:0c06bc0013607047340100204c01002046
:020000040000fa
:020000040c00ee
:1006c800044b1b6813b9044a002111700133014a15
:0c06d80013607047340100204c0100202a
:020000040000fa
:020000040c00ee
:1006e4000123034a13704ff08942c2f89c307047cb
:0406f4004e01002093
:020000040000fa
:020000040c00ee
:1006f8000d07000c7106000c4107000c4107000ca7
:040708004107000c99
:020000040000fa
:020000040c00ee
:10070c000a440023914201d10020704701f8013bbb
:02071c00f8e7fc
:020000040000fa
:020000040c00ee
:02071e00fee7f4
:020000040000fa
:020000040c00ee
:10072000024b40f61d421a62704700bf00e0804451
:020000040000fa
:020000040c00ee
:10073000024b04221a725a72704700bf00600044d4
:020000040000fa
:020000040c00ee
:0407400000207047de
:020000040000fa
:020000040c00ee
:02074400fee7ce
:020000040000fa
:020000040c00ee
:020746007047fa
:020000040000fa
:020000040c00ee
:020748007047f8
:020000040000fa
:020000040c00ee
:02074a007047f6
:00000001FF
